:020000040000FA
:060000000A128A110C280F
:10000800FE00030EF1000A08F2000A128A111628EF
:100018000A128A110F28F801F901FA0183010A125C
:100028008A11D728831203138C1D1B281C287428B7
:100038001412141B202821282528941F2428252839
:100048002C281308F0007008F900141394131416E0
:1000580083160313941A3128322850281419352886
:1000680036285028831203131308F0007008F9008B
:100078008C11141683160313141C432844283E2895
:10008800831203131308F0007008FA00A630F0007A
:10009800F00B4C2800007128941A53285428712812
:1000A800141D572858287128831203131308F000C9
:1000B8007008F9008316031314107A0883120313C7
:1000C80093001416A630F000F00B68280000831681
:1000D80003131418702871286B28831203138C11CA
:1000E80072088A00710E8300FE0E7E0E0900F5006C
:1000F800B328831603130F128F120F13D5288316F4
:1001080003130F168F120F13D528831603130F121C
:100118008F160F13D528831603130F168F160F1378
:10012800D528831603130F128F120F17D52883169D
:1001380003130F168F120F17D528831603130F12E8
:100148008F160F17D528831603130F168F160F1740
:10015800D528831603130F128F160F17D528750885
:10016800F300F4017408003A0319BB28AD2873089A
:10017800003A03197D28013A03198328033A031921
:100188008928013A03198F28073A03199528013A53
:1001980003199B28033A0319A128013A0319A72830
:1001A800AD280F14080007300A128A117B200A12A2
:1001B8008A110A128A112A210A128A110A128A112C
:1001C8003D210A128A1183120313850186018701D2
:1001D80088010330F7009730F600F60BF128F70B8B
:1001E800F128F628831203131F119F111F129F1263
:1001F8001F140C139F141E08F6007608FA000D3021
:10020800F700FB30F600F60B0729F70B07290C2936
:10021800ED280A128A110C28F300730883160313B9
:10022800930036308312031394008030831603132F
:10023800940001309100871507168B170B1783124E
:1002480003138C11831603138C15080001308316D1
:10025800031385008601870188010130831603177F
:100268008800890130300A128A1110210A128A1175
:100278000800831203131F139F17831603139F137A
:0C0288001F129F12831203131F140800A2
:04400E00D4E0FFFFFC
:00000001FF
