:020000040000FA
:060000000A128A11FB2F19
:100E94000130831603138500860187018801013020
:100EA40083160317880089010800831203131F1394
:100EB4009F17831603139F131F129F12831203138A
:100EC4001F14080007300A128A119F270A128A1178
:100ED4000A128A114A270A128A110A128A115727FA
:100EE4000A128A118312031385018601870188017E
:100EF4000330F4009730F300F30B7E2FF40B7E2FB6
:100F0400832F831203131F119F111F129F121F148B
:100F14000C139F141E08F3007308F500750886006F
:100F24000D30F400FB30F300F30B962FF40B962FE7
:100F34009B2F7A2F0A128A110028F200D72F8316CA
:100F440003130F128F120F13F92F831603130F16A7
:100F54008F120F13F92F831603130F128F160F130B
:100F6400F92F831603130F168F160F13F92F8316F9
:100F740003130F128F120F17F92F831603130F1673
:100F84008F120F17F92F831603130F128F160F17D3
:100F9400F92F831603130F168F160F17F92F8316C5
:100FA40003130F128F160F17F92F7208F000F101B7
:100FB4007108003A0319DF2FD12F7008003A031982
:100FC400A12F013A0319A72F033A0319AD2F013AB0
:100FD4000319B32F073A0319B92F013A0319BF2F85
:100FE400033A0319C52F013A0319CB2FD12F0F143C
:0C0FF4000800F50183010A128A11642F25
:04400E00D4E0FFFFFC
:00000001FF
