:020000040000FA
:100000000A128A11FC2F00308A000408840A820731
:1000100000345334313400345334323400345334E4
:040020003334003441
:100B1E008312031388154E30F100EB30F000F00B0A
:100B2E00962DF10B962D8312031388110800F200F7
:100B3E000A128A111A260A128A11720883120313D4
:100B4E008600881308110A128A118F250A128A113B
:100B5E000800F2000A128A111A260A128A11720865
:100B6E00831203138600881708110A128A118F2523
:100B7E000A128A1108008316031385018601870164
:100B8E00880183160317880189010030831203132D
:100B9E00A3000130A2008630A100A030A0000A12EE
:100BAE008A1171260A128A11080038300A128A1127
:100BBE009E250A128A110C300A128A119E250A12DB
:100BCE008A1101300A128A119E250A128A110630E4
:100BDE000A128A119E250A128A1180300A128A116F
:100BEE009E250A128A110800F4000D2E7408840046
:100BFE000A128A1103200A128A110A128A11B025CA
:100C0E000A128A110130F3007308F4077408840085
:100C1E000A128A1103200A128A11003A031D182E95
:100C2E00192EFD2D0800FF3083120313860080302D
:100C3E00F000700886058813081588114E30F100F3
:100C4E00EB30F000F00B292EF10B292E831203133B
:100C5E00881580300606031D352E362E422E88113D
:100C6E004E30F100EB30F000F00B3B2EF10B3B2E33
:100C7E008312031388150800F80003307802031856
:100C8E00492E4A2E702E10307302031C4F2E502EFA
:100C9E00512E702E78030319552E562E5C2EC03011
:100CAE007304F6000030F700612E80307304F600F6
:100CBE000030F70076080A128A119E250A128A1150
:100CCE000D30F500FB30F400F40B6B2EF50B6B2E94
:100CDE00702E08002830831203139400831603131A
:100CEE009101831203132008A4002108A5002208F5
:100CFE00A6002308A70002300310A40DA50DA60D13
:100D0E00A70DFF3E031D832E2708F3002608F200D1
:100D1E002508F1002408F0000030F7007A30F600C4
:100D2E001230F5000030F4000A128A1105270A125B
:100D3E008A117008FF3E83160313930094018715E2
:100D4E0007160800F200E12E831603130F128F12FE
:100D5E000F13032F831603130F168F120F13032F68
:100D6E00831603130F128F160F13032F83160313FD
:100D7E000F168F160F13032F831603130F128F12D6
:100D8E000F17032F831603130F168F120F17032F30
:100D9E00831603130F128F160F17032F83160313C9
:100DAE000F168F160F17032F831603130F128F169E
:100DBE000F17032F7208F000F1017108003A0319A2
:100DCE00E92EDB2E7008003A0319AB2E013A0319F7
:100DDE00B12E033A0319B72E013A0319BD2E073A65
:100DEE000319C32E013A0319C92E033A0319CF2E44
:100DFE00013A0319D52EDB2E0F1408000030FC002B
:100E0E000030FB000030FA000030F9007308720465
:100E1E00710470040319142F152F622FFD01FD0AA2
:100E2E00252F0130F8000310F00DF10DF20DF30D2A
:100E3E00F80B1A2F0130F8007808FD07F31F282F42
:100E4E00292F182F0130F8000310F90DFA0DFB0DA4
:100E5E00FC0DF80B2B2F73087702031D402F720821
:100E6E007602031D402F71087502031D402F700876
:100E7E007402031C432F442F532F7008F402710881
:100E8E00031C710FF5027208031C720FF602730831
:100E9E00031C730FF702791401300310F30CF20CDC
:100EAE00F10CF00CFF3E031D542F0130FD02031D0B
:100EBE00612F622F292F7C08F3007B08F2007A083D
:100ECE00F1007908F000080007300A128A11A926ED
:100EDE000A128A110A128A11C2250A128A110A12DC
:100EEE008A11DC250A128A118312031385018601E9
:100EFE00870188010230A8002808F30001300A1289
:100F0E008A1143260A128A1101300A128A11FB2510
:100F1E000A128A11073083120313A8002808F3005F
:100F2E0001300A128A1143260A128A1104300A125B
:100F3E008A11FB250A128A110C3083120313A800A2
:100F4E002808F30001300A128A1143260A128A1168
:100F5E0007300A128A11FB250A128A11F301F30ACD
:100F6E0002300A128A1143260A128A112E300A12F0
:100F7E008A11B0250A128A11043083120313A800B5
:100F8E002808F30002300A128A1143260A128A1127
:100F9E0056300A128A11B0250A128A110B308312AA
:100FAE000313A8002808F30002300A128A11432600
:100FBE000A128A112E300A128A11B0250A128A11CB
:100FCE000E3083120313A8002808F30002300A1211
:100FDE008A1143260A128A1156300A128A11B02536
:100FEE000A128A110A128A11002883010A128A1122
:020FFE006B2F57
:04400E00D4E0FFFFFC
:00000001FF
