:020000040000FA
:060000000A128A11F32F21
:10000A00F2003D28831603130F128F120F135F2875
:10001A00831603130F168F120F135F288316031309
:10002A000F128F160F135F28831603130F168F16DE
:10003A000F135F28831603130F128F120F175F28EF
:10004A00831603130F168F120F175F2883160313D5
:10005A000F128F160F175F28831603130F168F16AA
:10006A000F175F28831603130F128F160F175F28B7
:10007A007208F000F1017108003A0319452837287F
:10008A007008003A03190728013A03190D28033AA0
:10009A0003191328013A03191928073A03191F28C3
:1000AA00013A03192528033A03192B28013A03199F
:1000BA00312837280F140800F80078080319662831
:1000CA0067287B28F31F6A286B287B287009FA00A7
:1000DA007109FB007209FC007309FD00FA0A031991
:1000EA00FB0A0319FC0A0319FD0A83287308FD0099
:1000FA007208FC007108FB007008FA0073087204A9
:10010A0071047004031D8A288B2894280030F30098
:10011A000030F2000030F1000030F0001A29963069
:10012A00F4007408F900A6280130F4007408F907ED
:10013A0001300310FD0CFC0CFB0CFA0CFF3E031DF6
:10014A009E28FE307D05031DAB28AC289928C828B7
:10015A000130F4007408F9070130FA070030031877
:10016A000130FB07003003180130FC070030031888
:10017A000130FD0701300310FD0CFC0CFB0CFA0CDE
:10018A00FF3E031DC028FF307D05031DCD28CE2864
:10019A00AD28DA280130F9020130F4000310FA0D13
:1001AA00FB0DFC0DFD0DF40BD328FC1BDD28DE280E
:1001BA00E428023079020318E328E428CF287918C2
:1001CA00E728E828F028FF30FA05FF30FB057F30E2
:1001DA00FC05FF30FD050310F90C7908F400F50160
:1001EA00F601F70118300310F40DF50DF60DF70DB1
:1001FA00FF3E031DF8287408FA047508FB04760804
:10020A00FC047708FD04780803190C290D29122922
:10021A00F31F102911291229FD177D08F3007C0804
:10022A00F2007B08F1007A08F00008008312031339
:10023A0047088039F9007908CC004708F90079079E
:10024A00FA007A08D200C61F2B292C292D2952140C
:10025A0052080319312932294129520A031D362924
:10026A0037293F290030C7000030C6000030C500DA
:10027A000030C400C61749290030C7000030C60044
:10028A000030C5000030C4004B088039F9007908F5
:10029A00CC064B08F9007907FA007A08D100CA1F80
:1002AA005729582959295114510803195D295E29DA
:1002BA006D29510A031D622963296B290030CB007D
:1002CA000030CA000030C9000030C800CA177529BA
:1002DA000030CB000030CA000030C9000030C8002E
:1002EA005108031979297A297F295208031D7E2981
:1002FA007F2988290030C7000030C6000030C500B9
:10030A000030C4007B2C4408F9007908F0004A0840
:10031A000A128A15E3220A128A1171088312031338
:10032A00D8007008D7005708F900FA01FB01FC0150
:10033A007C08D0007B08CF007A08CE007908CD006F
:10034A005808F900FA01FB01FC017C08D6007B0879
:10035A00D5007A08D4007908D3004508F90079084D
:10036A00F00049080A128A15E3220A128A11710852
:10037A0083120313D8007008D7005708F900FA014E
:10038A00FB01FC017908CD077A0803110318013E25
:10039A000319D029CE077B0803110318013E03195C
:1003AA00D729CF077C0803110318013E0319DE2958
:1003BA00D0075808F900FA01FB01FC017908D307B4
:1003CA007A0803110318013E0319EC29D4077B08A4
:1003DA0003110318013E0319F329D5077C080311F9
:1003EA000318013E0319FA29D6074608F9007908C5
:1003FA00F00048080A128A15E3220A128A117108C3
:10040A0083120313D8007008D7005708F900FA01BD
:10041A00FB01FC017908CD077A0803110318013E94
:10042A000319182ACE077B0803110318013E031982
:10043A001F2ACF077C0803110318013E0319262A35
:10044A00D0075808F900FA01FB01FC017908D30723
:10045A007A0803110318013E0319342AD4077B08CA
:10046A0003110318013E03193B2AD5077C0803111F
:10047A000318013E0319422AD6070830F90003106F
:10048A00CD0DCE0DCF0DD00DF90B442A4508F9003C
:10049A007908F00048080A128A15E3220A128A111A
:1004AA00710883120313D8007008D7005708F9009F
:1004BA005808FA00FB01FC017908CD077A080311F4
:1004CA000318013E03196A2ACE077B080311031891
:1004DA00013E0319712ACF077C0803110318013E54
:1004EA000319782AD0074408F9007908F000490866
:1004FA000A128A15E3220A128A1171088312031357
:10050A00D8007008D7005708F9005808FA00FB010C
:10051A00FC017908CD077A0803110318013E031973
:10052A00972ACE077B0803110318013E03199E2A56
:10053A00CF077C0803110318013E0319A52AD00727
:10054A000830F9000310CD0DCE0DCF0DD00DF90BEB
:10055A00A72A4408F9007908F00048080A128A15FF
:10056A00E3220A128A11710883120313D800700851
:10057A00D7005708F9005808FA00FB01FC0179086E
:10058A00CD077A0803110318013E0319CD2ACE07B5
:10059A007B0803110318013E0319D42ACF077C08EC
:1005AA0003110318013E0319DB2AD0074508F90095
:1005BA007908F0004A080A128A15E3220A128A11F7
:1005CA00710883120313D8007008D7005708F9007E
:1005DA005808FA00FB01FC017908D3077A080311CD
:1005EA000318013E0319FA2AD4077B0803110318DA
:1005FA00013E0319012BD5077C0803110318013E9C
:10060A000319082BD6074608F9007908F0004908AB
:10061A000A128A15E3220A128A1171088312031335
:10062A00D8007008D7005708F9005808FA00FB01EB
:10063A00FC017908D3077A0803110318013E03194C
:10064A00272BD4077B0803110318013E03192E2B0D
:10065A00D5077C0803110318013E0319352BD60769
:10066A004608F9007908F0004A080A128A15E322B6
:10067A000A128A11710883120313D8007008D7006E
:10068A005708F9005808FA00FB01FC01083003106A
:10069A00F90DFA0DFB0DFC0DFF3E031D4C2B7908DD
:1006AA00D3077A0803110318013E03195D2BD407F7
:1006BA007B0803110318013E0319642BD5077C0834
:1006CA0003110318013E03196B2BD6074D08F900D5
:1006DA004E08FA004F08FB005008FC0018300310BF
:1006EA00FC0CFB0CFA0CF90CFF3E031D742B790869
:1006FA00D3077A0803110318013E0319852BD4077F
:10070A007B0803110318013E03198C2BD5077C08BB
:10071A0003110318013E0319932BD6070830F90079
:10072A000310CD0DCE0DCF0DD00DF90B952B520820
:10073A005107F900FA01FA0D7908823ED7007A08C2
:10074A000318013EFF3ED800C72B0130F900031001
:10075A00D30DD40DD50DD60DF90BAC2BD01FB62B5E
:10076A00B72BB82B53140130F9000310CD0DCE0D61
:10077A00CF0DD00DF90BBA2BFF30D7070318D80AC3
:10078A00FF30D807D51FCA2BCB2BAA2BD101D01FDC
:10079A00CF2BD02BEC2BFF304D05F900FF304E0547
:1007AA00FA00FF304F05FB007F305005FC007C0843
:1007BA007B047A0479040319E32BE42BE72BD10198
:1007CA00D10AEC2B531CEA2BEB2BEC2BE42B510814
:1007DA000319F02BF12B222C0130D3070030031818
:1007EA000130D407003003180130D5070030031850
:1007FA000130D607561C022C032C222C5308F90070
:10080A005408FA005508FB005608FC000130FD00A8
:10081A007C0DFC0CFB0CFA0CF90CFD0B0D2C7C0866
:10082A00D6007B08D5007A08D4007908D3000130B5
:10083A00D7070318D80A0030D8075808803AFF00AB
:10084A0080307F02031D2B2CFF305702031C2E2CF5
:10085A002F2C3A2C7F3083120313D6008030D50018
:10086A000030D4000030D3006F2C831203135808D1
:10087A00803AFF0080307F02031D452C0130570269
:10088A000318482C492C552C003083120313D60028
:10089A000030D5000030D4000030D300CC016F2CDA
:1008AA00831203135708F9007908D200FF30D305E1
:1008BA00FF30D4057F30D5050030D605521C662C92
:1008CA00672C682CD5175208F9000310790CFA0026
:1008DA007A08D6004C08F9007908D6045608C700E9
:1008EA005508C6005408C5005308C400080007305C
:1008FA000A128A1105200A128A110A128A158B22F3
:10090A000A128A110A128A15A5220A128A11831258
:10091A00031385018601870188010230DE005E0823
:10092A00F30001300A128A1560230A128A11013073
:10093A000A128A15C4220A128A1107308312031373
:10094A00DE005E08F30001300A128A1560230A12DB
:10095A008A1104300A128A15C4220A128A110C302A
:10096A0083120313DE005E08F30001300A128A15AF
:10097A0060230A128A1107300A128A15C4220A123F
:10098A008A11F301F30A02300A128A1560230A1245
:10099A008A112E300A128A1579220A128A11043013
:1009AA0083120313DE005E08F30002300A128A156E
:1009BA0060230A128A1156300A128A1579220A12FB
:1009CA008A110B3083120313DE005E08F300023033
:1009DA000A128A1560230A128A112E300A128A15FF
:1009EA0079220A128A110E3083120313DE005E087E
:1009FA00F30002300A128A1560230A128A1156304D
:100A0A000A128A1579220A128A110A128A152F22C3
:100A1A000A128A113130F0000030F1000A128A15E8
:100A2A0041220A128A110030F000F1000A128A15D6
:100A3A0033230A128A11700883120313DE005E0838
:100A4A00C3000A128A1538220A128A110330831245
:100A5A000313E0000830DF007630DE00DE0B332DB2
:100A6A00DF0B332DE00B332D00000A128A152F22DB
:100A7A000A128A116130F0000030F1000A128A1558
:100A8A0041220A128A110030F000F1000A128A1576
:100A9A0033230A128A11700883120313DE005E08D8
:100AAA00C2000A128A1538220A128A1103308312E6
:100ABA000313E0000830DF007630DE00DE0B632D22
:100ACA00DF0B632DE00B632D00000A128A152F221B
:100ADA000A128A119130F0000030F1000A128A15C8
:100AEA0041220A128A110030F000F1000A128A1516
:100AFA0033230A128A11700883120313DE005E0878
:100B0A00C1000A128A1538220A128A110330831286
:100B1A000313E0000830DF007630DE00DE0B932D91
:100B2A00DF0B932DE00B932D000042308312031349
:100B3A00C7004C30C6000030C5000030C40043086E
:100B4A00DE00DF01E001E1016108F3006008F20064
:100B5A005F08F1005E08F00001300A128A11612074
:100B6A000A128A11730883120313CB007208CA008F
:100B7A007108C9007008C8000A128A1523260A12C9
:100B8A008A11831203134708AF004608AE004508CE
:100B9A00AD004408AC004230C7004C30C6000030FB
:100BAA00C5000030C4004108DE00DF01E001E101B8
:100BBA006108F3006008F2005F08F1005E08F000C7
:100BCA0001300A128A1161200A128A1173088312EB
:100BDA000313CB007208CA007108C9007008C80064
:100BEA000A128A1523260A128A1183120313470846
:100BFA00AB004608AA004508A9004408A8004230EC
:100C0A00C700C830C6000030C5000030C4002F0835
:100C1A00CB002E08CA002D08C9002C08C8000A12E9
:100C2A008A111B210A128A11831203134708A7008B
:100C3A004608A6004508A5004408A4002708F300B2
:100C4A002608F2002508F1002408F0000A128A1585
:100C5A00A9250A128A11710883120313B7007008B2
:100C6A00B6000A30F0000030F1003708F300360809
:100C7A00F2000A128A15C6230A128A117008831210
:100C8A000313DE005E08BD000A30F0000030F100F8
:100C9A003708F3003608F2000A128A153F240A12AE
:100CAA008A11710883120313B5007008B4000A3060
:100CBA00F0000030F1003508F3003408F2000A129F
:100CCA008A15C6230A128A11700883120313DE00DA
:100CDA005E08BE002F08F3002E08F2002D08F1006E
:100CEA002C08F0000A128A15A9250A128A1170081E
:100CFA0083120313DE005E08C000F30102300A12F9
:100D0A008A1560230A128A118312031340080A12F1
:100D1A008A1500240A128A110A128A1579220A12DD
:100D2A008A11023083120313DE005E08F3000230D8
:100D3A000A128A1560230A128A11831203133E08C3
:100D4A000A128A1500240A128A110A128A157922AD
:100D5A000A128A11033083120313DE005E08F300BD
:100D6A0002300A128A1560230A128A1183120313A7
:100D7A003D080A128A1500240A128A110A128A15D3
:100D8A0079220A128A110A30F0000030F100831227
:100D9A0003134208DE00DF015E08F2005F08F30079
:100DAA000A128A1583240A128A11700883120313FD
:100DBA00E0006008BA000A30F0000030F100420892
:100DCA00DE00DF015E08F2005F08F3000A128A15EE
:100DDA0042250A128A11700883120313E000600880
:100DEA00B9000730DE005E08F30002300A128A15E5
:100DFA0060230A128A118312031339080A128A1508
:100E0A0000240A128A110A128A1579220A128A11F0
:100E1A00083083120313DE005E08F30002300A1260
:100E2A008A1560230A128A11831203133A080A12D6
:100E3A008A1500240A128A110A128A1579220A12BC
:100E4A008A11423083120313C700C830C60000302B
:100E5A00C5000030C4002B08CB002A08CA002908A4
:100E6A00C9002808C8000A128A111B210A128A110D
:100E7A00831203134708A3004608A2004508A100ED
:100E8A004408A0002308F3002208F2002108F10018
:100E9A002008F0000A128A15A9250A128A11710877
:100EAA0083120313B3007008B2000A30F000003056
:100EBA00F1003308F3003208F2000A128A15C62339
:100ECA000A128A11700883120313DE005E08BB003F
:100EDA000A30F0000030F1003308F3003208F20063
:100EEA000A128A153F240A128A11710883120313FF
:100EFA00B1007008B0000A30F0000030F10031088B
:100F0A00F3003008F2000A128A15C6230A128A115F
:100F1A00700883120313DE005E08BC002B08F3007E
:100F2A002A08F2002908F1002808F0000A128A1596
:100F3A00A9250A128A11700883120313DE005E08BB
:100F4A00BF000A30DE005E08F30002300A128A157A
:100F5A0060230A128A11831203133F080A128A15A0
:100F6A0000240A128A110A128A1579220A128A118F
:100F7A000C3083120313DE005E08F30002300A12FB
:100F8A008A1560230A128A11831203133C080A1273
:100F9A008A1500240A128A110A128A1579220A125B
:100FAA008A110D3083120313DE005E08F30002304B
:100FBA000A128A1560230A128A11831203133B0844
:100FCA000A128A1500240A128A110A128A1579222B
:100FDA000A128A110A2D0A128A1100288313203054
:100FEA00840044300A128A1527220A128A118301C0
:100FFA000A128A117C2C08308A000408840A8207A3
:10100A0000345334313400345334323400345334DA
:04101A003334003437
:10144E0064008001840A0406031900340406282A65
:10145E000A128A154B220A128A15831603131114C7
:10146E0008000A128A154B220A128A1583160313D4
:10147E00111508000A128A154B220A128A157008D5
:10148E008312031393000800831603131419502AB2
:10149E00512A4B2A11081F39031D562A572A4B2A47
:1014AE0008008312031388154E30F100EB30F00064
:1014BE00F00B5F2AF10B5F2A8312031388110800C9
:1014CE00F2000A128A150A230A128A15720883126A
:1014DE0003138600881308110A128A1558220A125D
:1014EE008A150800F2000A128A150A230A128A15B2
:1014FE007208831203138600881708110A128A15C0
:10150E0058220A128A1508008316031385018601D4
:10151E008701880183160317880189010030831221
:10152E000313C7000130C6008630C500A030C400CA
:10153E000A128A158E230A128A15080038300A12EA
:10154E008A1567220A128A150C300A128A1567222A
:10155E000A128A1501300A128A1567220A128A1592
:10156E0006300A128A1567220A128A1580300A126C
:10157E008A1567220A128A150800F400D62A740802
:10158E0084000A128A1500200A128A150A128A1578
:10159E0079220A128A150130F3007308F4077408D1
:1015AE0084000A128A1500200A128A15003A031DB9
:1015BE00E12AE22AC62A0800F800F401F5017008B3
:1015CE00F200F3017208F6007308F700781CF02A97
:1015DE00F12AF72A7608F4070318F50A7708F507B3
:1015EE0001300310F60DF70DFF3E031DF82A031010
:1015FE00F80C7808031D042B052BED2A7508F10055
:10160E007408F0000800FF30831203138600803048
:10161E00F000700886058813081588114E30F10009
:10162E00EB30F000F00B192BF10B192B8312031377
:10163E00881580300606031D252B262B322B88118C
:10164E004E30F100EB30F000F00B2B2BF10B2B2B6F
:10165E0083120313881508000A128A154B220A12E8
:10166E008A158316031391150A128A154B220A1234
:10167E008A15831203131308F200F3017208F400A3
:10168E007308F5000A128A154B220A128A15700881
:10169E0071040319532B572B8316031391165A2BD0
:1016AE0083160313911211167508F1007408F000D9
:1016BE000800F800033078020318662B672B8D2B79
:1016CE0010307302031C6C2B6D2B6E2B8D2B78033D
:1016DE000319722B732B792BC0307304F600003074
:1016EE00F7007E2B80307304F6000030F70076088A
:1016FE000A128A1567220A128A150D30F500FB3080
:10170E00F400F40B882BF50B882B8D2B080028305A
:10171E008312031394008316031391018312031390
:10172E004408C8004508C9004608CA004708CB004F
:10173E0002300310C80DC90DCA0DCB0DFF3E031D9F
:10174E00A02B4B08F3004A08F2004908F1004808A4
:10175E00F0000030F7007A30F6001230F50000305D
:10176E00F4000A128A15DC240A128A157008FF3E4C
:10177E00831603139300940187150716080070084B
:10178E0071040319CB2BCC2BFB2BF501F50ADA2BAD
:10179E0001300310F00DF10DFF3E031DD02B013073
:1017AE00F4007408F507F11FDD2BDE2BCF2B71082B
:1017BE007302031DE42B70087202031CE72BE82B47
:1017CE00EE2B7008F2027108031CF303F3020130D2
:1017DE000310F10CF00CFF3E031DEF2B0130F50250
:1017EE00031DFA2BFB2BDE2B7308F1007208F000A1
:1017FE000800F200162C30303E2C31303E2C3230A8
:10180E003E2C33303E2C34303E2C35303E2C363090
:10181E003E2C37303E2C38303E2C39303E2C720860
:10182E00F000F1017108003A03191E2C3E2C7008CD
:10183E00003A0319022C013A0319042C033A031936
:10184E00062C013A0319082C073A03190A2C013AFF
:10185E0003190C2C033A03190E2C013A0319102C00
:10186E000F3A0319122C013A0319142C3E2C0800BE
:10187E00F501F601700871040319462C472C7E2CD5
:10188E00F701F70A552C01300310F00DF10DFF3E54
:10189E00031D4B2C0130F4007408F707F11F582C70
:1018AE00592C4A2C01300310F50DF60DFF3E031D89
:1018BE005A2C71087302031D662C70087202031CE9
:1018CE00692C6A2C712C7008F2027108031CF30348
:1018DE00F302751401300310F10CF00CFF3E031DE2
:1018EE00722C0130F702031D7D2C7E2C592C7608AC
:1018FE00F1007508F0000800F601F31F872C882C04
:10190E008F2CF209F309F20A0319F30AF601F60A0B
:10191E00F11F922C932C982CF009F109F00A03195F
:10192E00F10A7008710403199D2C9E2CCD2CF50123
:10193E00F50AAC2C01300310F00DF10DFF3E031D26
:10194E00A22C0130F4007408F507F11FAF2CB02C57
:10195E00A12C71087302031DB62C70087202031CB1
:10196E00B92CBA2CC02C7008F2027108031CF303B8
:10197E00F30201300310F10CF00CFF3E031DC12CDD
:10198E000130F502031DCC2CCD2CB02C760803199A
:10199E00D12CD22CD72CF209F309F20A0319F30A2F
:1019AE007308F1007208F00008000030FC000030EF
:1019BE00FB000030FA000030F90073087204710465
:1019CE0070040319EB2CEC2C392DFD01FD0AFC2CB7
:1019DE000130F8000310F00DF10DF20DF30DF80BC0
:1019EE00F12C0130F8007808FD07F31FFF2C002DB5
:1019FE00EF2C0130F8000310F90DFA0DFB0DFC0D64
:101A0E00F80B022D73087702031D172D720876024C
:101A1E00031D172D71087502031D172D7008740212
:101A2E00031C1A2D1B2D2A2D7008F4027108031C9D
:101A3E00710FF5027208031C720FF6027308031C75
:101A4E00730FF702791401300310F30CF20CF10C42
:101A5E00F00CFF3E031D2B2D0130FD02031D382D12
:101A6E00392D002D7C08F3007B08F2007A08F10076
:101A7E007908F0000800F601F11F462D472D4E2D76
:101A8E00F009F109F00A0319F10AF601F60AF31F3B
:101A9E00512D522D5B2DF209F309F20A0319F30AA7
:101AAE000130F4007408F606F701F80170087104AD
:101ABE000319622D632D9A2DF501F50A712D013052
:101ACE000310F00DF10DFF3E031D672D0130F400E4
:101ADE007408F507F11F742D752D662D0130031056
:101AEE00F70DF80DFF3E031D762D71087302031DD1
:101AFE00822D70087202031C852D862D8D2D700887
:101B0E00F2027108031CF303F30277140130031081
:101B1E00F10CF00CFF3E031D8E2D0130F502031D5E
:101B2E00992D9A2D752D760803199E2D9F2DA42D76
:101B3E00F709F809F70A0319F80A7808F100770887
:101B4E00F00008000310720D730DF4007408FA0013
:101B5E007A08031DB32DB42DBD2D0030F3000030D7
:101B6E00F2000030F1000030F000222E7008F40078
:101B7E007108F5007208F6007308F7001F300310A5
:101B8E00F70CF60CF50CF40CFF3E031DC62D740875
:101B9E00F8007808F900F217FF30F005FF30F10574
:101BAE00FF30F2050030F3059630FA02FA1FE02DF1
:101BBE00E12DFB2D7A08803A973E0318E72DE82D8C
:101BCE00E92DB42D01300310F30CF20CF10CF00CD6
:101BDE00FF3E031DEA2D0130F4007408FA07031DC1
:101BEE00F92DFA2DE92D122E20307A02031C002E2B
:101BFE00012E0D2EB42D0130F4000310F00DF10D59
:101C0E00F20DF30DF40B042E0130FA027A08031DC7
:101C1E00112E122E022E79080319162E172E222E91
:101C2E00F009F109F209F309F00A0319F10A03198F
:101C3E00F20A0319F30A0800831203134B088039C2
:101C4E00CC004C08D5004B08CC004C07CD004D08FD
:101C5E00DC00CA1F332E342E352E5C145C0803199B
:101C6E00392E3A2E4A2E5C0A031D3E2E3F2E472E4B
:101C7E000030CB000030CA000030C9000030C80070
:101C8E00CA17CB01522E0030CB000030CA000030F4
:101C9E00C9000030C80047088039CC004C08D50672
:101CAE004708CC004C07CD004D08DD00C61F602E46
:101CBE00612E622E5D145D080319662E672E772E37
:101CCE005D0A031D6B2E6C2E742E0030C700003083
:101CDE00C6000030C5000030C400C617C7017F2EF5
:101CEE000030C7000030C6000030C5000030C40010
:101CFE004708460445044404031D862E872EA02E55
:101D0E000030CB000030CA000030C9000030C800DF
:101D1E008030CA047F30CB045508CC004C08CB046D
:101D2E004B08C7004A08C6004908C5004808C40049
:101D3E00FF2F5C08031DA42EA52EAE2E0030C7006B
:101D4E000030C6000030C5000030C400FF2F5C0814
:101D5E00CC00CD014D08CF005D084C02CE00031C17
:101D6E00CF034E087F3ED6004F080318013E003EBB
:101D7E00D7004B08D4004A08D3004908D2004808BF
:101D8E00D1000030CB000030CA000030C900003056
:101D9E00C8000030DB000030DA000030D90000301F
:101DAE00D800DD01242F5D080319DE2EDF2EFF2E55
:101DBE000130CC000310D10DD20DD30DD40DCC0BB0
:101DCE00E12E0130CC000310C80DC90DCA0DCB0D8C
:101DDE00CC0BEA2EDB1FF42EF52EF62E4814013016
:101DEE00CC000310D80DD90DDA0DDB0DCC0BF82E6F
:101DFE0047085402031D0D2F46085302031D0D2FD5
:101E0E0045085202031D0D2F44085102031C102FCA
:101E1E00112F202F5B174408D1024508031C450FD4
:101E2E00D2024608031C460FD3024708031C470F75
:101E3E00D4020130CC004C08DD071A305D02031CC1
:101E4E00292F2A2FDA2E5408530452045104031951
:101E5E00312F322F512F5814512F0130CC00031037
:101E6E00C80DC90DCA0DCB0DCC0B362FDB1F402F65
:101E7E00412F422F48140130CC000310D80DD90D3C
:101E8E00DA0DDB0DCC0B442FFF30D6070318D70A23
:101E9E00FF30D707CA1F542F552F342FDD01DB1FFC
:101EAE00592F5A2F762FFF305805CC00FF30590589
:101EBE00CD00FF305A05CE007F305B05CF004F08B6
:101ECE004E044D044C0403196D2F6E2F712FDD013E
:101EDE00DD0A762F481C742F752F762F6E2F5D0816
:101EEE0003197A2F7B2FAC2F0130C807003003184F
:101EFE000130C907003003180130CA07003003183B
:101F0E000130CB074B1C8C2F8D2FAC2F4808CC00EB
:101F1E004908CD004A08CE004B08CF000130D00052
:101F2E004F0DCF0CCE0CCD0CCC0CD00B972F4F08E9
:101F3E00CB004E08CA004D08C9004C08C80001303D
:101F4E00D6070318D70A0030D7075708803AFF0084
:101F5E0080307F02031DB52FFF305602031CB82FB1
:101F6E00B92FC72FFF3083120313D6000030D700CE
:101F7E000030CB000030CA000030C9000030C8006D
:101F8E00831203135708803AFF0080307F02031D2F
:101F9E00D22F013056020318D52FD62FE32F8312DE
:101FAE000313D601D7010030CB000030CA00003039
:101FBE00C9000030C800D501831203135608CC00A7
:101FCE004C08DC005C1CEC2FED2FEF2FCA17F32F03
:101FDE007F30CC004C08CA055C08CC0003104C0CBA
:101FEE00CD004D08CB005508CC004C08CB04972EE5
:021FFE000800D9
:04400E00D4E0FFFFFC
:00000001FF
