:020000040000FA
:100000000A128A11F32F00308A000408840A82073A
:1000100000345334313400345334323400345334E4
:040020003334003441
:100028000030FC000030FB000030FA000030F9001E
:100038007308720471047004031923282428712892
:10004800FD01FD0A34280130F8000310F00DF10D10
:10005800F20DF30DF80B29280130F8007808FD0798
:10006800F31F3728382827280130F8000310F90D26
:10007800FA0DFB0DFC0DF80B3A2873087702031DE7
:100088004F2872087602031D4F2871087502031D58
:100098004F2870087402031C5228532862287008DD
:1000A800F4027108031C710FF5027208031C720F29
:1000B800F6027308031C730FF7027914013003105A
:1000C800F30CF20CF10CF00CFF3E031D6328013019
:1000D800FD02031D7028712838287C08F3007B086E
:1000E800F2007A08F1007908F0000800F8007808B2
:1000F80003197F2880289428F31F832884289428AC
:100108007009FA007109FB007209FC007309FD000F
:10011800FA0A0319FB0A0319FC0A0319FD0A9C28A9
:100128007308FD007208FC007108FB007008FA00F3
:100138007308720471047004031DA328A428AD2851
:100148000030F3000030F2000030F1000030F00021
:1001580033299630F4007408F900BF280130F40000
:100168007408F90701300310FD0CFC0CFB0CFA0CA9
:10017800FF3E031DB728FE307D05031DC428C52892
:10018800B228E1280130F4007408F9070130FA07B1
:10019800003003180130FB07003003180130FC075A
:1001A800003003180130FD0701300310FD0CFC0C72
:1001B800FB0CFA0CFF3E031DD928FF307D05031DFB
:1001C800E628E728C628F3280130F9020130F400B0
:1001D8000310FA0DFB0DFC0DFD0DF40BEC28FC1BB8
:1001E800F628F728FD28023079020318FC28FD2894
:1001F800E8287918002901290929FF30FA05FF3074
:10020800FB057F30FC05FF30FD050310F90C79086C
:10021800F400F501F601F70118300310F40DF50D9F
:10022800F60DF70DFF3E031D11297408FA04750831
:10023800FB047608FC047708FD04780803192529CF
:1002480026292B29F31F29292A292B29FD177D085F
:10025800F3007C08F2007B08F1007A08F00008003F
:1002680007300A128A154D250A128A110A128A15B0
:1002780055230A128A110A128A156F230A128A1143
:100288008312031385018601870188010230DE008D
:100298005E08F30001300A128A152A240A128A110C
:1002A80001300A128A158E230A128A110730831226
:1002B8000313DE005E08F30001300A128A152A24AF
:1002C8000A128A1104300A128A158E230A128A1118
:1002D8000C3083120313DE005E08F30001300A12AB
:1002E8008A152A240A128A1107300A128A158E23BF
:1002F8000A128A11F301F30A02300A128A152A2413
:100308000A128A112E300A128A1543230A128A11F8
:10031800043083120313DE005E08F30002300A1271
:100328008A152A240A128A1156300A128A1543237A
:100338000A128A110B3083120313DE005E08F300E1
:1003480002300A128A152A240A128A112E300A1239
:100358008A1543230A128A110E3083120313DE0012
:100368005E08F30002300A128A152A240A128A113A
:1003780056300A128A1543230A128A110A128A155C
:10038800F9220A128A113130F0000030F1000A1205
:100398008A150B230A128A110030F000F1000A12A4
:1003A8008A15FD230A128A11700883120313DE00CE
:1003B8005E08C3000A128A1502230A128A11033042
:1003C80083120313E0000830DF007630DE00DE0B16
:1003D800EB29DF0BEB29E00BEB2900000A128A1549
:1003E800F9220A128A116130F0000030F1000A1275
:1003F8008A150B230A128A110030F000F1000A1244
:100408008A15FD230A128A11700883120313DE006D
:100418005E08C2000A128A1502230A128A110330E2
:1004280083120313E0000830DF007630DE00DE0BB5
:100438001B2ADF0B1B2AE00B1B2A00000A128A1555
:10044800F9220A128A119130F0000030F1000A12E4
:100458008A150B230A128A110030F000F1000A12E3
:100468008A15FD230A128A11700883120313DE000D
:100478005E08C1000A128A1502230A128A11033083
:1004880083120313E0000830DF007630DE00DE0B55
:100498004B2ADF0B4B2AE00B4B2A00004230831219
:1004A8000313C7004C30C6000030C5000030C4003C
:1004B8004308DE00DF01E001E1016108F3006008A4
:1004C800F2005F08F1005E08F00001300A128A119C
:1004D8007A200A128A11730883120313CB00720858
:1004E800CA007108C9007008C8000A128A152326B4
:1004F8000A128A11831203134708AF004608AE0098
:100508004508AD004408AC004230C7004C30C60076
:100518000030C5000030C4004108DE00DF01E00102
:10052800E1016108F3006008F2005F08F1005E086D
:10053800F00001300A128A117A200A128A1173080F
:1005480083120313CB007208CA007108C90070082F
:10055800C8000A128A1523260A128A118312031365
:100568004708AB004608AA004508A9004408A800A7
:100578004230C700C830C6000030C5000030C40093
:100588002F08CB002E08CA002D08C9002C08C80067
:100598000A128A1192240A128A1183120313470835
:1005A800A7004608A6004508A5004408A400270897
:1005B800F3002608F2002508F1002408F0000A12CA
:1005C8008A15A9250A128A11710883120313B70024
:1005D8007008B6000A30F0000030F1003708F30068
:1005E8003608F2000A128A1590240A128A11700835
:1005F80083120313DE005E08BD000A30F0000030ED
:10060800F1003708F3003608F2000A128A150925A6
:100618000A128A11710883120313B5007008B40016
:100628000A30F0000030F1003508F3003408F20019
:100638000A128A1590240A128A1170088312031369
:10064800DE005E08BE002F08F3002E08F2002D0819
:10065800F1002C08F0000A128A15A9250A128A113D
:10066800700883120313DE005E08C000F301023035
:100678000A128A152A240A128A11831203134008BF
:100688000A128A15CA240A128A110A128A154323E1
:100698000A128A11023083120313DE005E08F30087
:1006A80002300A128A152A240A128A1183120313A5
:1006B8003E080A128A15CA240A128A110A128A15D1
:1006C80043230A128A11033083120313DE005E08E3
:1006D800F30002300A128A152A240A128A11831298
:1006E80003133D080A128A15CA240A128A110A122B
:1006F8008A1543230A128A11063083120313DE0077
:100708005E08F30002300A128A152A240A128A1196
:1007180000300A128A15CA240A128A110A128A1586
:1007280043230A128A11073083120313DE005E087E
:10073800F30002300A128A152A240A128A1100309C
:100748000A128A15CA240A128A110A128A15432320
:100758000A128A11083083120313DE005E08F300C0
:1007680002300A128A152A240A128A1100300A1243
:100778008A15CA240A128A110A128A1543230A12F0
:100788008A11423083120313C700C830C6000030F4
:10079800C5000030C4002B08CB002A08CA0029086D
:1007A800C9002808C8000A128A1192240A128A115C
:1007B800831203134708A3004608A2004508A100B6
:1007C8004408A0002308F3002208F2002108F100E1
:1007D8002008F0000A128A15A9250A128A11710840
:1007E80083120313B3007008B2000A30F00000301F
:1007F800F1003308F3003208F2000A128A15902437
:100808000A128A11700883120313DE005E08BB0007
:100818000A30F0000030F1003308F3003208F2002B
:100828000A128A1509250A128A11710883120313FC
:10083800B1007008B0000A30F0000030F100310853
:10084800F3003008F2000A128A1590240A128A115D
:10085800700883120313DE005E08BC002B08F30047
:100868002A08F2002908F1002808F0000A128A155F
:10087800A9250A128A11700883120313DE005E0884
:10088800BF000A30DE005E08F30002300A128A1543
:100898002A240A128A11831203133F080A128A159E
:1008A800CA240A128A110A128A1543230A128A11C3
:1008B8000C3083120313DE005E08F30002300A12C4
:1008C8008A152A240A128A11831203133C080A1271
:1008D8008A15CA240A128A110A128A1543230A128F
:1008E8008A110D3083120313DE005E08F300023014
:1008F8000A128A152A240A128A11831203133B0842
:100908000A128A15CA240A128A110A128A1543235E
:100918000A128A11C2290A128A11002883120313A3
:1009280047088039F9007908CC004708F9007907A9
:10093800FA007A08D200C61FA22CA32CA42C5214A9
:1009480052080319A82CA92CB82C520A031DAD2C47
:10095800AE2CB62C0030C7000030C6000030C500F1
:100968000030C400C617C02C0030C7000030C600D5
:100978000030C5000030C4004B088039F900790800
:10098800CC064B08F9007907FA007A08D100CA1F8B
:10099800CE2CCF2CD02C511451080319D42CD52C83
:1009A800E42C510A031DD92CDA2CE22C0030CB00A0
:1009B8000030CA000030C9000030C800CA17EC2C4B
:1009C8000030CB000030CA000030C9000030C80039
:1009D80051080319F02CF12CF62C5208031DF52CA4
:1009E800F62CFF2C0030C7000030C6000030C500D0
:1009F8000030C400F22F4408F9007908F0004A08D2
:100A08000A128A15AD230A128A1171088312031378
:100A1800D8007008D7005708F900FA01FB01FC015B
:100A28007C08D0007B08CF007A08CE007908CD007A
:100A38005808F900FA01FB01FC017C08D6007B0884
:100A4800D5007A08D4007908D3004508F900790858
:100A5800F00049080A128A15AD230A128A11710892
:100A680083120313D8007008D7005708F900FA0159
:100A7800FB01FC017908CD077A0803110318013E30
:100A88000319472DCE077B0803110318013E0319EC
:100A98004E2DCF077C0803110318013E0319552D6D
:100AA800D0075808F900FA01FB01FC017908D307BF
:100AB8007A0803110318013E0319632DD4077B0834
:100AC80003110318013E03196A2DD5077C08031189
:100AD8000318013E0319712DD6074608F900790855
:100AE800F00048080A128A15AD230A128A11710803
:100AF80083120313D8007008D7005708F900FA01C9
:100B0800FB01FC017908CD077A0803110318013E9F
:100B180003198F2DCE077B0803110318013E031913
:100B2800962DCF077C0803110318013E03199D2D4C
:100B3800D0075808F900FA01FB01FC017908D3072E
:100B48007A0803110318013E0319AB2DD4077B085B
:100B580003110318013E0319B22DD5077C080311B0
:100B68000318013E0319B92DD6070830F900031000
:100B7800CD0DCE0DCF0DD00DF90BBB2D4508F900CD
:100B88007908F00048080A128A15AD230A128A115A
:100B9800710883120313D8007008D7005708F900AA
:100BA8005808FA00FB01FC017908CD077A080311FF
:100BB8000318013E0319E12DCE077B080311031822
:100BC800013E0319E82DCF077C0803110318013EE5
:100BD8000319EF2DD0074408F9007908F0004908F7
:100BE8000A128A15AD230A128A1171088312031397
:100BF800D8007008D7005708F9005808FA00FB0118
:100C0800FC017908CD077A0803110318013E03197E
:100C18000E2ECE077B0803110318013E0319152E6B
:100C2800CF077C0803110318013E03191C2ED007B7
:100C38000830F9000310CD0DCE0DCF0DD00DF90BF6
:100C48001E2E4408F9007908F00048080A128A158F
:100C5800AD230A128A11710883120313D800700891
:100C6800D7005708F9005808FA00FB01FC01790879
:100C7800CD077A0803110318013E0319442ECE0745
:100C88007B0803110318013E03194B2ECF077C087C
:100C980003110318013E0319522ED0074508F90025
:100CA8007908F0004A080A128A15AD230A128A1137
:100CB800710883120313D8007008D7005708F90089
:100CC8005808FA00FB01FC017908D3077A080311D8
:100CD8000318013E0319712ED4077B08031103186A
:100CE800013E0319782ED5077C0803110318013E2D
:100CF80003197F2ED6074608F9007908F00049083D
:100D08000A128A15AD230A128A1171088312031375
:100D1800D8007008D7005708F9005808FA00FB01F6
:100D2800FC017908D3077A0803110318013E031957
:100D38009E2ED4077B0803110318013E0319A52E24
:100D4800D5077C0803110318013E0319AC2ED607FA
:100D58004608F9007908F0004A080A128A15AD23F6
:100D68000A128A11710883120313D8007008D70079
:100D78005708F9005808FA00FB01FC010830031075
:100D8800F90DFA0DFB0DFC0DFF3E031DC32E79086E
:100D9800D3077A0803110318013E0319D42ED40788
:100DA8007B0803110318013E0319DB2ED5077C08C5
:100DB80003110318013E0319E22ED6074D08F90066
:100DC8004E08FA004F08FB005008FC0018300310CA
:100DD800FC0CFB0CFA0CF90CFF3E031DEB2E7908FA
:100DE800D3077A0803110318013E0319FC2ED40710
:100DF8007B0803110318013E0319032FD5077C084C
:100E080003110318013E03190A2FD6070830F90009
:100E18000310CD0DCE0DCF0DD00DF90B0C2F5208B0
:100E28005107F900FA01FA0D7908823ED7007A08CD
:100E38000318013EFF3ED8003E2F0130F900031091
:100E4800D30DD40DD50DD60DF90B232FD01F2D2F73
:100E58002E2F2F2F53140130F9000310CD0DCE0D76
:100E6800CF0DD00DF90B312FFF30D7070318D80A53
:100E7800FF30D807D51F412F422F212FD101D01F76
:100E8800462F472F632FFF304D05F900FF304E05E1
:100E9800FA00FF304F05FB007F305005FC007C084E
:100EA8007B047A04790403195A2F5B2F5E2FD10132
:100EB800D10A632F531C612F622F632F5B2F5108B8
:100EC8000319672F682F992F0130D30700300318B3
:100ED8000130D407003003180130D507003003185B
:100EE8000130D607561C792F7A2F992F5308F9000D
:100EF8005408FA005508FB005608FC000130FD00B4
:100F08007C0DFC0CFB0CFA0CF90CFD0B842F7C08F7
:100F1800D6007B08D5007A08D4007908D3000130C0
:100F2800D7070318D80A0030D8075808803AFF00B6
:100F380080307F02031DA22FFF305702031CA52F0C
:100F4800A62FB12F7F3083120313D6008030D5002F
:100F58000030D4000030D300E62F83120313580862
:100F6800803AFF0080307F02031DBC2F01305702FA
:100F78000318BF2FC02FCC2F003083120313D600C5
:100F88000030D5000030D4000030D300CC01E62F6B
:100F9800831203135708F9007908D200FF30D305EC
:100FA800FF30D4057F30D5050030D605521CDD2F23
:100FB800DE2FDF2FD5175208F9000310790CFA003D
:100FC8007A08D6004C08F9007908D6045608C700F4
:100FD8005508C6005408C5005308C4000800831308
:100FE8002030840044300A128A15F1220A128A112C
:080FF80083010A128A11342959
:1015E20064008001840A0406031900340406F22A06
:1015F2000A128A1515230A128A1583160313111467
:1016020008000A128A1515230A128A158316031373
:10161200111508000A128A1515230A128A15700874
:1016220083120313930008008316031314191A2B51
:101632001B2B152B11081F39031D202B212B152BBA
:1016420008008312031388154E30F100EB30F000CE
:10165200F00B292BF10B292B83120313881108009D
:10166200F2000A128A15D4230A128A15720883120A
:1016720003138600881308110A128A1522230A12FC
:101682008A150800F2000A128A15D4230A128A1552
:101692007208831203138600881708110A128A152A
:1016A20022230A128A150800831603138501860174
:1016B200870188018316031788018901003083128C
:1016C2000313C7000130C6008630C500A030C40035
:1016D2000A128A1558240A128A15080038300A128A
:1016E2008A1531230A128A150C300A128A153123FF
:1016F2000A128A1501300A128A1531230A128A1532
:1017020006300A128A1531230A128A1580300A120B
:101712008A1531230A128A150800F400A02B7408D6
:1017220084000A128A1103200A128A150A128A15E3
:1017320043230A128A150130F3007308F407740870
:1017420084000A128A1103200A128A15003A031D24
:10175200AB2BAC2B902B0800F800F401F5017008BC
:10176200F200F3017208F6007308F700781CBA2B36
:10177200BB2BC12B7608F4070318F50A7708F50787
:1017820001300310F60DF70DFF3E031DC22B0310AF
:10179200F80C7808031DCE2BCF2BB72B7508F10060
:1017A2007408F0000800FF308312031386008030B3
:1017B200F000700886058813081588114E30F10074
:1017C200EB30F000F00BE32BF10BE32B831203134E
:1017D200881580300606031DEF2BF02BFC2B881199
:1017E2004E30F100EB30F000F00BF52BF10BF52B46
:1017F20083120313881508000A128A1515230A1288
:101802008A158316031391150A128A1515230A12D3
:101812008A15831203131308F200F3017208F4000D
:101822007308F5000A128A1515230A128A15700820
:10183200710403191D2C212C831603139116242CD9
:1018420083160313911211167508F1007408F00043
:101852000800F800033078020318302C312C572C82
:1018620010307302031C362C372C382C572C78037B
:1018720003193C2C3D2C432CC0307304F60000307D
:10188200F700482C80307304F6000030F700760829
:101892000A128A1531230A128A150D30F500FB301F
:1018A200F400F40B522CF50B522C572C0800283064
:1018B20083120313940083160313910183120313FB
:1018C2004408C8004508C9004608CA004708CB00BA
:1018D20002300310C80DC90DCA0DCB0DFF3E031D0A
:1018E2006A2C4B08F3004A08F2004908F100480844
:1018F200F0000030F7007A30F6001230F5000030C8
:10190200F4000A128A1114200A128A157008FF3E86
:1019120083160313930094018715071608007008B5
:1019220071040319952C962CC52CF501F50AA42CEB
:1019320001300310F00DF10DFF3E031D9A2C013012
:10194200F4007408F507F11FA72CA82C992C710834
:101952007302031DAE2C70087202031CB12CB22C50
:10196200B82C7008F2027108031CF303F302013071
:101972000310F10CF00CFF3E031DB92C0130F502EF
:10198200031DC42CC52CA82C7308F1007208F000AA
:101992000800F200E02C3030082D3130082D3230B2
:1019A200082D3330082D3430082D3530082D3630CF
:1019B200082D3730082D3830082D3930082D72089F
:1019C200F000F1017108003A0319E82C082D7008A3
:1019D200003A0319CC2C013A0319CE2C033A03190D
:1019E200D02C013A0319D22C073A0319D42C013A0C
:1019F2000319D62C033A0319D82C013A0319DA2C0D
:101A02000F3A0319DC2C013A0319DE2C082D0800C9
:101A1200F501F601700871040319102D112D482DDE
:101A2200F701F70A1F2D01300310F00DF10DFF3EF3
:101A3200031D152D0130F4007408F707F11F222D44
:101A4200232D142D01300310F50DF60DFF3E031D5D
:101A5200242D71087302031D302D70087202031CBD
:101A6200332D342D3B2D7008F2027108031CF30351
:101A7200F302751401300310F10CF00CFF3E031D4C
:101A82003C2D0130F702031D472D482D232D7608EA
:101A9200F1007508F0000800F200852D831603138B
:101AA2000F128F120F13A72D831603130F168F1207
:101AB2000F13A72D831603130F128F160F13A72DC3
:101AC200831603130F168F160F13A72D83160313F6
:101AD2000F128F120F17A72D831603130F168F12D3
:101AE2000F17A72D831603130F128F160F17A72D8B
:101AF200831603130F168F160F17A72D83160313C2
:101B02000F128F160F17A72D7208F000F10171083E
:101B1200003A03198D2D7F2D7008003A03194F2DBD
:101B2200013A0319552D033A03195B2D013A0319A2
:101B3200612D073A0319672D013A03196D2D033AF6
:101B42000319732D013A0319792D7F2D0F14080003
:101B52000310720D730DF4007408FA007A08031D65
:101B6200B32DB42DBD2D0030F3000030F200003053
:101B7200F1000030F000222E7008F4007108F50028
:101B82007208F6007308F7001F300310F70CF60C0A
:101B9200F50CF40CFF3E031DC62D7408F8007808FE
:101BA200F900F217FF30F005FF30F105FF30F205C2
:101BB2000030F3059630FA02FA1FE02DE12DFB2DDD
:101BC2007A08803A973E0318E72DE82DE92DB42DC7
:101BD20001300310F30CF20CF10CF00CFF3E031D6C
:101BE200EA2D0130F4007408FA07031DF92DFA2DCD
:101BF200E92D122E20307A02031C002E012E0D2E0A
:101C0200B42D0130F4000310F00DF10DF20DF30DBF
:101C1200F40B042E0130FA027A08031D112E122E43
:101C2200022E79080319162E172E222EF009F10919
:101C3200F209F309F00A0319F10A0319F20A031966
:101C4200F30A0800831203134B088039CC004C08B6
:101C5200D5004B08CC004C07CD004D08DC00CA1F54
:101C6200332E342E352E5C145C080319392E3A2E8D
:101C72004A2E5C0A031D3E2E3F2E472E0030CB001B
:101C82000030CA000030C9000030C800CA17CB01BA
:101C9200522E0030CB000030CA000030C9000030A4
:101CA200C80047088039CC004C08D5064708CC004C
:101CB2004C07CD004D08DD00C61F602E612E622E3E
:101CC2005D145D080319662E672E772E5D0A031DCB
:101CD2006B2E6C2E742E0030C7000030C600003010
:101CE200C5000030C400C617C7017F2E0030C700F0
:101CF2000030C6000030C5000030C400470846046A
:101D020045044404031D862E872EA02E0030CB00EE
:101D12000030CA000030C9000030C8008030CA0458
:101D22007F30CB045508CC004C08CB044B08C700CD
:101D32004A08C6004908C5004808C400FF2F5C08CD
:101D4200031DA42EA52EAE2E0030C7000030C60003
:101D52000030C5000030C400FF2F5C08CC00CD016C
:101D62004D08CF005D084C02CE00031CCF034E0885
:101D72007F3ED6004F080318013E003ED7004B08B5
:101D8200D4004A08D3004908D2004808D1000030E4
:101D9200CB000030CA000030C9000030C80000305B
:101DA200DB000030DA000030D9000030D800DD015D
:101DB200242F5D080319DE2EDF2EFF2E0130CC000A
:101DC2000310D10DD20DD30DD40DCC0BE12E013069
:101DD200CC000310C80DC90DCA0DCB0DCC0BEA2ED9
:101DE200DB1FF42EF52EF62E48140130CC00031022
:101DF200D80DD90DDA0DDB0DCC0BF82E47085402A5
:101E0200031D0D2F46085302031D0D2F45085202D4
:101E1200031D0D2F44085102031C102F112F202FD8
:101E22005B174408D1024508031C450FD20246083D
:101E3200031C460FD3024708031C470FD40201308C
:101E4200CC004C08DD071A305D02031C292F2A2F13
:101E5200DA2E54085304520451040319312F322F3D
:101E6200512F5814512F0130CC000310C80DC90D49
:101E7200CA0DCB0DCC0B362FDB1F402F412F422F2B
:101E820048140130CC000310D80DD90DDA0DDB0D4A
:101E9200CC0B442FFF30D6070318D70AFF30D707E1
:101EA200CA1F542F552F342FDD01DB1F592F5A2FF4
:101EB200762FFF305805CC00FF305905CD00FF309A
:101EC2005A05CE007F305B05CF004F084E044D040B
:101ED2004C0403196D2F6E2F712FDD01DD0A762F51
:101EE200481C742F752F762F6E2F5D0803197A2FD9
:101EF2007B2FAC2F0130C807003003180130C9070F
:101F0200003003180130CA07003003180130CB0734
:101F12004B1C8C2F8D2FAC2F4808CC004908CD00CC
:101F22004A08CE004B08CF000130D0004F0DCF0C35
:101F3200CE0CCD0CCC0CD00B972F4F08CB004E08FB
:101F4200CA004D08C9004C08C8000130D607031862
:101F5200D70A0030D7075708803AFF0080307F0247
:101F6200031DB52FFF305602031CB82FB92FC72F00
:101F7200FF3083120313D6000030D7000030CB00AD
:101F82000030CA000030C9000030C80083120313B9
:101F92005708803AFF0080307F02031DD22F0130A4
:101FA20056020318D52FD62FE32F83120313D6011F
:101FB200D7010030CB000030CA000030C900003029
:101FC200C800D501831203135608CC004C08DC006C
:101FD2005C1CEC2FED2FEF2FCA17F32F7F30CC00B4
:101FE2004C08CA055C08CC0003104C0CCD004D080F
:0E1FF200CB005508CC004C08CB04972E0800FD
:04400E00D4E0FFFFFC
:00000001FF
