:020000040000FA
:060000000A128A110C280F
:10000800FE00030EF1000A08F2000A128A11832882
:100018000A128A110F28F801F901FA01FB01FC0103
:1000280083010A128A11182807300A128A11E82057
:100038000A128A110A128A115E210A128A1183127F
:1000480003138501860187018801081D2C282D28A6
:100058002F28FC01FC0A7C03031D332834284A2876
:100068000819372838284A281A30F700F830F600D7
:10007800F60B3C28F70B3C2800000130F600760808
:10008800FA077A08831203138600FC0110307A06F7
:10009800031D4F2850285328FA017A088600881D26
:1000A800562857285928FB01FB0A7B03031D5D28A6
:1000B8005E28742888196128622874281A30F70085
:1000C800F830F600F60B6628F70B66280000FF30BC
:1000D800F6007608FA077A08831203138600FB01F4
:1000E8007A0A031D7828792829280F30F60076081F
:1000F800FA007A08860029280A128A110C28831225
:1001080003138C1D88288928E1281412141B8D28B4
:100118008E289228941F9128922899281308F00075
:100128007008F90014139413141683160313941A01
:100138009E289F28BD281419A228A328BD28831209
:1001480003131308F0007008F9008C1114168316B5
:100158000313141CB028B128AB2883120313130807
:10016800F0007008FA00A630F000F00BB928000083
:10017800DE28941AC028C128DE28141DC428C528E2
:10018800DE28831203131308F0007008F9008316A1
:10019800031314107A088312031393001416A6305D
:1001A800F000F00BD5280000831603131418DD287F
:1001B800DE28D828831203138C1172088A00710E66
:1001C8008300FE0E7E0E0900F50020298316031316
:1001D8000F128F120F134229831603130F168F1253
:1001E8000F134229831603130F128F160F13422978
:1001F800831603130F168F160F1342298316031342
:100208000F128F120F174229831603130F168F121E
:100218000F174229831603130F128F160F1742293F
:10022800831603130F168F160F174229831603130D
:100238000F128F160F1742297508F300F40174087E
:10024800003A031928291A297308003A0319EA28D9
:10025800013A0319F028033A0319F628013A031959
:10026800FC28073A03190229013A03190829033A15
:1002780003190E29013A031914291A290F14080021
:10028800F3007308831603139300363083120313A5
:100298009400803083160313940001309100871571
:1002A80007168B170B17831203138C11831603136E
:1002B8008C150800831603138501860187010C300D
:1002C8008800831603178801890160300A128A1191
:0802D80044210A128A110800FA
:04400E00D4E0FFFFFC
:00000001FF
