:020000040000FA
:060000000A128A11F92F1B
:100E4E00831603138501860187010C3088008316F3
:100E5E000317880189010800F2006B2F8316031314
:100E6E000F128F120F138D2F831603130F168F125F
:100E7E000F138D2F831603130F128F160F138D2F33
:100E8E00831603130F168F160F138D2F831603134E
:100E9E000F128F120F178D2F831603130F168F122B
:100EAE000F178D2F831603130F128F160F178D2FFB
:100EBE00831603130F168F160F178D2F831603131A
:100ECE000F128F160F178D2F7208F000F101710897
:100EDE00003A0319732F652F7008003A0319352F46
:100EEE00013A03193B2F033A0319412F013A031913
:100EFE00472F073A03194D2F013A0319532F033A7F
:100F0E000319592F013A03195F2F652F0F1408008B
:100F1E0007300A128A1133270A128A110A128A110D
:100F2E0027270A128A11831203138501860187016E
:100F3E008801081DA32FA42FA62FF701F70A770308
:100F4E00031DAA2FAB2FC12F0819AE2FAF2FC12F04
:100F5E001A30F400F830F300F30BB32FF40BB32F69
:100F6E0000000130F3007308F507750883120313B0
:100F7E008600F70110307506031DC62FC72FC92F27
:100F8E00F5018601881DCC2FCD2FCF2FF601F60A45
:100F9E007603031DD32FD42FEA2F8819D72FD82FDE
:100FAE00EA2F1A30F400F830F300F30BDC2FF40BB9
:100FBE00DC2F0000FF30F3007308F507750883126D
:100FCE0003138600F601750A031DEE2FEF2FA02FD7
:100FDE000F30F3007308F5000F308600A02F0A12B1
:100FEE008A110028F501F601F70183010A128A1110
:020FFE008F2F33
:04400E00D4E0FFFFFC
:00000001FF
